{
  "contractName": "LendingPool",
  "abi": [
    {
      "inputs": [
        {
          "internalType": "address",
          "name": "_token",
          "type": "address"
        },
        {
          "internalType": "address",
          "name": "_usdc",
          "type": "address"
        },
        {
          "internalType": "address",
          "name": "_userAccountDataContract",
          "type": "address"
        }
      ],
      "stateMutability": "nonpayable",
      "type": "constructor"
    },
    {
      "inputs": [
        {
          "internalType": "address",
          "name": "owner",
          "type": "address"
        }
      ],
      "name": "OwnableInvalidOwner",
      "type": "error"
    },
    {
      "inputs": [
        {
          "internalType": "address",
          "name": "account",
          "type": "address"
        }
      ],
      "name": "OwnableUnauthorizedAccount",
      "type": "error"
    },
    {
      "anonymous": false,
      "inputs": [
        {
          "indexed": true,
          "internalType": "address",
          "name": "user",
          "type": "address"
        },
        {
          "indexed": false,
          "internalType": "uint256",
          "name": "amount",
          "type": "uint256"
        }
      ],
      "name": "Borrow",
      "type": "event"
    },
    {
      "anonymous": false,
      "inputs": [
        {
          "indexed": true,
          "internalType": "address",
          "name": "user",
          "type": "address"
        },
        {
          "indexed": false,
          "internalType": "uint256",
          "name": "amount",
          "type": "uint256"
        }
      ],
      "name": "Deposit",
      "type": "event"
    },
    {
      "anonymous": false,
      "inputs": [
        {
          "indexed": false,
          "internalType": "uint256",
          "name": "newRate",
          "type": "uint256"
        }
      ],
      "name": "InterestRateChanged",
      "type": "event"
    },
    {
      "anonymous": false,
      "inputs": [
        {
          "indexed": true,
          "internalType": "address",
          "name": "previousOwner",
          "type": "address"
        },
        {
          "indexed": true,
          "internalType": "address",
          "name": "newOwner",
          "type": "address"
        }
      ],
      "name": "OwnershipTransferred",
      "type": "event"
    },
    {
      "anonymous": false,
      "inputs": [
        {
          "indexed": true,
          "internalType": "address",
          "name": "user",
          "type": "address"
        },
        {
          "indexed": false,
          "internalType": "uint256",
          "name": "amount",
          "type": "uint256"
        }
      ],
      "name": "Repay",
      "type": "event"
    },
    {
      "anonymous": false,
      "inputs": [
        {
          "indexed": true,
          "internalType": "address",
          "name": "user",
          "type": "address"
        },
        {
          "indexed": false,
          "internalType": "uint256",
          "name": "amount",
          "type": "uint256"
        }
      ],
      "name": "Withdrawal",
      "type": "event"
    },
    {
      "inputs": [],
      "name": "interestRate",
      "outputs": [
        {
          "internalType": "uint256",
          "name": "",
          "type": "uint256"
        }
      ],
      "stateMutability": "view",
      "type": "function"
    },
    {
      "inputs": [],
      "name": "owner",
      "outputs": [
        {
          "internalType": "address",
          "name": "",
          "type": "address"
        }
      ],
      "stateMutability": "view",
      "type": "function"
    },
    {
      "inputs": [],
      "name": "renounceOwnership",
      "outputs": [],
      "stateMutability": "nonpayable",
      "type": "function"
    },
    {
      "inputs": [],
      "name": "token",
      "outputs": [
        {
          "internalType": "contract Token",
          "name": "",
          "type": "address"
        }
      ],
      "stateMutability": "view",
      "type": "function"
    },
    {
      "inputs": [
        {
          "internalType": "address",
          "name": "newOwner",
          "type": "address"
        }
      ],
      "name": "transferOwnership",
      "outputs": [],
      "stateMutability": "nonpayable",
      "type": "function"
    },
    {
      "inputs": [],
      "name": "usdc",
      "outputs": [
        {
          "internalType": "contract USDC",
          "name": "",
          "type": "address"
        }
      ],
      "stateMutability": "view",
      "type": "function"
    },
    {
      "inputs": [],
      "name": "userAccountDataContract",
      "outputs": [
        {
          "internalType": "contract UserAccountData",
          "name": "",
          "type": "address"
        }
      ],
      "stateMutability": "view",
      "type": "function"
    },
    {
      "inputs": [
        {
          "internalType": "uint256",
          "name": "amount",
          "type": "uint256"
        }
      ],
      "name": "deposit",
      "outputs": [],
      "stateMutability": "nonpayable",
      "type": "function"
    },
    {
      "inputs": [
        {
          "internalType": "uint256",
          "name": "amount",
          "type": "uint256"
        }
      ],
      "name": "withdraw",
      "outputs": [],
      "stateMutability": "nonpayable",
      "type": "function"
    },
    {
      "inputs": [
        {
          "internalType": "uint256",
          "name": "amount",
          "type": "uint256"
        }
      ],
      "name": "borrow",
      "outputs": [],
      "stateMutability": "nonpayable",
      "type": "function"
    },
    {
      "inputs": [
        {
          "internalType": "uint256",
          "name": "amount",
          "type": "uint256"
        }
      ],
      "name": "repay",
      "outputs": [],
      "stateMutability": "nonpayable",
      "type": "function"
    },
    {
      "inputs": [
        {
          "internalType": "uint256",
          "name": "amount",
          "type": "uint256"
        }
      ],
      "name": "repaywithCollateral",
      "outputs": [],
      "stateMutability": "nonpayable",
      "type": "function"
    },
    {
      "inputs": [],
      "name": "getUser",
      "outputs": [
        {
          "components": [
            {
              "internalType": "uint256",
              "name": "collateralBalance",
              "type": "uint256"
            },
            {
              "internalType": "uint256",
              "name": "borrowedAmount",
              "type": "uint256"
            },
            {
              "internalType": "uint256",
              "name": "tokenBalance",
              "type": "uint256"
            },
            {
              "internalType": "uint256",
              "name": "usdcBalance",
              "type": "uint256"
            },
            {
              "internalType": "uint256",
              "name": "interestIndex",
              "type": "uint256"
            },
            {
              "internalType": "bool",
              "name": "isActive",
              "type": "bool"
            }
          ],
          "internalType": "struct UserAccountData.Account",
          "name": "",
          "type": "tuple"
        }
      ],
      "stateMutability": "view",
      "type": "function"
    },
    {
      "inputs": [],
      "name": "getInterestRate",
      "outputs": [
        {
          "internalType": "uint256",
          "name": "",
          "type": "uint256"
        }
      ],
      "stateMutability": "view",
      "type": "function"
    },
    {
      "inputs": [
        {
          "internalType": "uint256",
          "name": "_newRate",
          "type": "uint256"
        }
      ],
      "name": "setInterestRate",
      "outputs": [],
      "stateMutability": "nonpayable",
      "type": "function"
    }
  ],
  "bytecode": "0x6080604052601460045534801562000015575f80fd5b5060405162001ff438038062001ff483398181016040528101906200003b9190620002b0565b335f73ffffffffffffffffffffffffffffffffffffffff168173ffffffffffffffffffffffffffffffffffffffff1603620000af575f6040517f1e4fbdf7000000000000000000000000000000000000000000000000000000008152600401620000a691906200031a565b60405180910390fd5b620000c0816200018a60201b60201c565b508260015f6101000a81548173ffffffffffffffffffffffffffffffffffffffff021916908373ffffffffffffffffffffffffffffffffffffffff1602179055508160025f6101000a81548173ffffffffffffffffffffffffffffffffffffffff021916908373ffffffffffffffffffffffffffffffffffffffff1602179055508060035f6101000a81548173ffffffffffffffffffffffffffffffffffffffff021916908373ffffffffffffffffffffffffffffffffffffffff16021790555050505062000335565b5f805f9054906101000a900473ffffffffffffffffffffffffffffffffffffffff169050815f806101000a81548173ffffffffffffffffffffffffffffffffffffffff021916908373ffffffffffffffffffffffffffffffffffffffff1602179055508173ffffffffffffffffffffffffffffffffffffffff168173ffffffffffffffffffffffffffffffffffffffff167f8be0079c531659141344cd1fd0a4f28419497f9722a3daafe3b4186f6b6457e060405160405180910390a35050565b5f80fd5b5f73ffffffffffffffffffffffffffffffffffffffff82169050919050565b5f6200027a826200024f565b9050919050565b6200028c816200026e565b811462000297575f80fd5b50565b5f81519050620002aa8162000281565b92915050565b5f805f60608486031215620002ca57620002c96200024b565b5b5f620002d9868287016200029a565b9350506020620002ec868287016200029a565b9250506040620002ff868287016200029a565b9150509250925092565b62000314816200026e565b82525050565b5f6020820190506200032f5f83018462000309565b92915050565b611cb180620003435f395ff3fe608060405234801561000f575f80fd5b50600436106100f3575f3560e01c80637c3a00fd11610095578063b6b55f2511610064578063b6b55f2514610225578063c5ebeaec14610241578063f2fde38b1461025d578063fc0c546a14610279576100f3565b80637c3a00fd146101ad578063832880e7146101cb5780638da5cb5b146101e9578063a55536d114610207576100f3565b80633e413bee116100d15780633e413bee1461014b5780635257b566146101695780635f84f30214610187578063715018a6146101a3576100f3565b806323615864146100f75780632e1a7d4d14610113578063371fd8e61461012f575b5f80fd5b610111600480360381019061010c9190611436565b610297565b005b61012d60048036038101906101289190611436565b6104dd565b005b61014960048036038101906101449190611436565b610737565b005b610153610a5c565b60405161016091906114db565b60405180910390f35b610171610a81565b60405161017e9190611503565b60405180910390f35b6101a1600480360381019061019c9190611436565b610a8a565b005b6101ab610ad3565b005b6101b5610ae6565b6040516101c29190611503565b60405180910390f35b6101d3610aec565b6040516101e091906115be565b60405180910390f35b6101f1610b97565b6040516101fe91906115f7565b60405180910390f35b61020f610bbe565b60405161021c9190611630565b60405180910390f35b61023f600480360381019061023a9190611436565b610be3565b005b61025b60048036038101906102569190611436565b610ea7565b005b61027760048036038101906102729190611673565b6111cc565b005b610281611250565b60405161028e91906116be565b60405180910390f35b5f81116102d9576040517f08c379a00000000000000000000000000000000000000000000000000000000081526004016102d090611731565b60405180910390fd5b5f60035f9054906101000a900473ffffffffffffffffffffffffffffffffffffffff1673ffffffffffffffffffffffffffffffffffffffff1663fbcbc0f1336040518263ffffffff1660e01b815260040161033491906115f7565b60c060405180830381865afa15801561034f573d5f803e3d5ffd5b505050506040513d601f19601f8201168201806040525081019061037391906118b6565b905081815f015110156103bb576040517f08c379a00000000000000000000000000000000000000000000000000000000081526004016103b29061192b565b60405180910390fd5b81816020018181516103cd9190611976565b9150818152505081815f018181516103e59190611976565b9150818152505060015f9054906101000a900473ffffffffffffffffffffffffffffffffffffffff1673ffffffffffffffffffffffffffffffffffffffff166323b872dd3330856040518463ffffffff1660e01b815260040161044a939291906119a9565b6020604051808303815f875af1158015610466573d5f803e3d5ffd5b505050506040513d601f19601f8201168201806040525081019061048a91906119de565b503373ffffffffffffffffffffffffffffffffffffffff167f5c16de4f8b59bd9caf0f49a545f25819a895ed223294290b408242e72a594231836040516104d19190611503565b60405180910390a25050565b5f811161051f576040517f08c379a000000000000000000000000000000000000000000000000000000000815260040161051690611731565b60405180910390fd5b5f60035f9054906101000a900473ffffffffffffffffffffffffffffffffffffffff1673ffffffffffffffffffffffffffffffffffffffff1663fbcbc0f1336040518263ffffffff1660e01b815260040161057a91906115f7565b60c060405180830381865afa158015610595573d5f803e3d5ffd5b505050506040513d601f19601f820116820180604052508101906105b991906118b6565b905081815f01511015610601576040517f08c379a00000000000000000000000000000000000000000000000000000000081526004016105f890611a53565b60405180910390fd5b8181602001511115610648576040517f08c379a000000000000000000000000000000000000000000000000000000000815260040161063f90611abb565b60405180910390fd5b60015f9054906101000a900473ffffffffffffffffffffffffffffffffffffffff1673ffffffffffffffffffffffffffffffffffffffff1663a9059cbb33846040518363ffffffff1660e01b81526004016106a4929190611ad9565b6020604051808303815f875af11580156106c0573d5f803e3d5ffd5b505050506040513d601f19601f820116820180604052508101906106e491906119de565b503373ffffffffffffffffffffffffffffffffffffffff167f7fcf532c15f0a6db0bd6d0e038bea71d30d808c7d98cb3bf7268a95bf5081b658360405161072b9190611503565b60405180910390a25050565b5f8111610779576040517f08c379a000000000000000000000000000000000000000000000000000000000815260040161077090611731565b60405180910390fd5b5f60035f9054906101000a900473ffffffffffffffffffffffffffffffffffffffff1673ffffffffffffffffffffffffffffffffffffffff1663fbcbc0f1336040518263ffffffff1660e01b81526004016107d491906115f7565b60c060405180830381865afa1580156107ef573d5f803e3d5ffd5b505050506040513d601f19601f8201168201806040525081019061081391906118b6565b9050818160600151101561085c576040517f08c379a000000000000000000000000000000000000000000000000000000000815260040161085390611a53565b60405180910390fd5b8160025f9054906101000a900473ffffffffffffffffffffffffffffffffffffffff1673ffffffffffffffffffffffffffffffffffffffff1663dd62ed3e33306040518363ffffffff1660e01b81526004016108b9929190611b00565b602060405180830381865afa1580156108d4573d5f803e3d5ffd5b505050506040513d601f19601f820116820180604052508101906108f89190611b27565b1015610939576040517f08c379a000000000000000000000000000000000000000000000000000000000815260040161093090611b9c565b60405180910390fd5b818160200181815161094b9190611976565b9150818152505081816060018181516109649190611976565b9150818152505060025f9054906101000a900473ffffffffffffffffffffffffffffffffffffffff1673ffffffffffffffffffffffffffffffffffffffff166323b872dd3330856040518463ffffffff1660e01b81526004016109c9939291906119a9565b6020604051808303815f875af11580156109e5573d5f803e3d5ffd5b505050506040513d601f19601f82011682018060405250810190610a0991906119de565b503373ffffffffffffffffffffffffffffffffffffffff167f5c16de4f8b59bd9caf0f49a545f25819a895ed223294290b408242e72a59423183604051610a509190611503565b60405180910390a25050565b60025f9054906101000a900473ffffffffffffffffffffffffffffffffffffffff1681565b5f600454905090565b610a92611275565b806004819055507f9b0e27966bda85ea10cceebb1a842d9ed3d720f4a9b7b0199bde09496cab682681604051610ac89190611503565b60405180910390a150565b610adb611275565b610ae45f6112fc565b565b60045481565b610af46113c4565b5f60035f9054906101000a900473ffffffffffffffffffffffffffffffffffffffff1673ffffffffffffffffffffffffffffffffffffffff1663fbcbc0f1336040518263ffffffff1660e01b8152600401610b4f91906115f7565b60c060405180830381865afa158015610b6a573d5f803e3d5ffd5b505050506040513d601f19601f82011682018060405250810190610b8e91906118b6565b90508091505090565b5f805f9054906101000a900473ffffffffffffffffffffffffffffffffffffffff16905090565b60035f9054906101000a900473ffffffffffffffffffffffffffffffffffffffff1681565b5f8111610c25576040517f08c379a0000000000000000000000000000000000000000000000000000000008152600401610c1c90611731565b60405180910390fd5b8060015f9054906101000a900473ffffffffffffffffffffffffffffffffffffffff1673ffffffffffffffffffffffffffffffffffffffff1663dd62ed3e33306040518363ffffffff1660e01b8152600401610c82929190611b00565b602060405180830381865afa158015610c9d573d5f803e3d5ffd5b505050506040513d601f19601f82011682018060405250810190610cc19190611b27565b1015610d02576040517f08c379a0000000000000000000000000000000000000000000000000000000008152600401610cf990611b9c565b60405180910390fd5b60015f9054906101000a900473ffffffffffffffffffffffffffffffffffffffff1673ffffffffffffffffffffffffffffffffffffffff166323b872dd3330846040518463ffffffff1660e01b8152600401610d60939291906119a9565b6020604051808303815f875af1158015610d7c573d5f803e3d5ffd5b505050506040513d601f19601f82011682018060405250810190610da091906119de565b505f60035f9054906101000a900473ffffffffffffffffffffffffffffffffffffffff1673ffffffffffffffffffffffffffffffffffffffff1663fbcbc0f1336040518263ffffffff1660e01b8152600401610dfc91906115f7565b60c060405180830381865afa158015610e17573d5f803e3d5ffd5b505050506040513d601f19601f82011682018060405250810190610e3b91906118b6565b905081815f01818151610e4e9190611bba565b915081815250503373ffffffffffffffffffffffffffffffffffffffff167fe1fffcc4923d04b559f4d29a8bfc6cda04eb5b0d3c460751c2402c5c5cc9109c83604051610e9b9190611503565b60405180910390a25050565b5f8111610ee9576040517f08c379a0000000000000000000000000000000000000000000000000000000008152600401610ee090611731565b60405180910390fd5b5f60035f9054906101000a900473ffffffffffffffffffffffffffffffffffffffff1673ffffffffffffffffffffffffffffffffffffffff1663fbcbc0f1336040518263ffffffff1660e01b8152600401610f4491906115f7565b60c060405180830381865afa158015610f5f573d5f803e3d5ffd5b505050506040513d601f19601f82011682018060405250810190610f8391906118b6565b905081815f01511015610fcb576040517f08c379a0000000000000000000000000000000000000000000000000000000008152600401610fc29061192b565b60405180910390fd5b5f60025f9054906101000a900473ffffffffffffffffffffffffffffffffffffffff1673ffffffffffffffffffffffffffffffffffffffff166370a08231306040518263ffffffff1660e01b815260040161102691906115f7565b602060405180830381865afa158015611041573d5f803e3d5ffd5b505050506040513d601f19601f820116820180604052508101906110659190611b27565b9050828110156110aa576040517f08c379a00000000000000000000000000000000000000000000000000000000081526004016110a190611c5d565b60405180910390fd5b82826020018181516110bc9190611bba565b9150818152505082826060018181516110d59190611bba565b9150818152505060025f9054906101000a900473ffffffffffffffffffffffffffffffffffffffff1673ffffffffffffffffffffffffffffffffffffffff1663a9059cbb33856040518363ffffffff1660e01b8152600401611138929190611ad9565b6020604051808303815f875af1158015611154573d5f803e3d5ffd5b505050506040513d601f19601f8201168201806040525081019061117891906119de565b503373ffffffffffffffffffffffffffffffffffffffff167fcbc04eca7e9da35cb1393a6135a199ca52e450d5e9251cbd99f7847d33a36750846040516111bf9190611503565b60405180910390a2505050565b6111d4611275565b5f73ffffffffffffffffffffffffffffffffffffffff168173ffffffffffffffffffffffffffffffffffffffff1603611244575f6040517f1e4fbdf700000000000000000000000000000000000000000000000000000000815260040161123b91906115f7565b60405180910390fd5b61124d816112fc565b50565b60015f9054906101000a900473ffffffffffffffffffffffffffffffffffffffff1681565b61127d6113bd565b73ffffffffffffffffffffffffffffffffffffffff1661129b610b97565b73ffffffffffffffffffffffffffffffffffffffff16146112fa576112be6113bd565b6040517f118cdaa70000000000000000000000000000000000000000000000000000000081526004016112f191906115f7565b60405180910390fd5b565b5f805f9054906101000a900473ffffffffffffffffffffffffffffffffffffffff169050815f806101000a81548173ffffffffffffffffffffffffffffffffffffffff021916908373ffffffffffffffffffffffffffffffffffffffff1602179055508173ffffffffffffffffffffffffffffffffffffffff168173ffffffffffffffffffffffffffffffffffffffff167f8be0079c531659141344cd1fd0a4f28419497f9722a3daafe3b4186f6b6457e060405160405180910390a35050565b5f33905090565b6040518060c001604052805f81526020015f81526020015f81526020015f81526020015f81526020015f151581525090565b5f604051905090565b5f80fd5b5f819050919050565b61141581611403565b811461141f575f80fd5b50565b5f813590506114308161140c565b92915050565b5f6020828403121561144b5761144a6113ff565b5b5f61145884828501611422565b91505092915050565b5f73ffffffffffffffffffffffffffffffffffffffff82169050919050565b5f819050919050565b5f6114a361149e61149984611461565b611480565b611461565b9050919050565b5f6114b482611489565b9050919050565b5f6114c5826114aa565b9050919050565b6114d5816114bb565b82525050565b5f6020820190506114ee5f8301846114cc565b92915050565b6114fd81611403565b82525050565b5f6020820190506115165f8301846114f4565b92915050565b61152581611403565b82525050565b5f8115159050919050565b61153f8161152b565b82525050565b60c082015f8201516115595f85018261151c565b50602082015161156c602085018261151c565b50604082015161157f604085018261151c565b506060820151611592606085018261151c565b5060808201516115a5608085018261151c565b5060a08201516115b860a0850182611536565b50505050565b5f60c0820190506115d15f830184611545565b92915050565b5f6115e182611461565b9050919050565b6115f1816115d7565b82525050565b5f60208201905061160a5f8301846115e8565b92915050565b5f61161a826114aa565b9050919050565b61162a81611610565b82525050565b5f6020820190506116435f830184611621565b92915050565b611652816115d7565b811461165c575f80fd5b50565b5f8135905061166d81611649565b92915050565b5f60208284031215611688576116876113ff565b5b5f6116958482850161165f565b91505092915050565b5f6116a8826114aa565b9050919050565b6116b88161169e565b82525050565b5f6020820190506116d15f8301846116af565b92915050565b5f82825260208201905092915050565b7f416d6f756e74206d7573742062652067726561746572207468616e20300000005f82015250565b5f61171b601d836116d7565b9150611726826116e7565b602082019050919050565b5f6020820190508181035f8301526117488161170f565b9050919050565b5f80fd5b5f601f19601f8301169050919050565b7f4e487b71000000000000000000000000000000000000000000000000000000005f52604160045260245ffd5b61179982611753565b810181811067ffffffffffffffff821117156117b8576117b7611763565b5b80604052505050565b5f6117ca6113f6565b90506117d68282611790565b919050565b5f815190506117e98161140c565b92915050565b6117f88161152b565b8114611802575f80fd5b50565b5f81519050611813816117ef565b92915050565b5f60c0828403121561182e5761182d61174f565b5b61183860c06117c1565b90505f611847848285016117db565b5f83015250602061185a848285016117db565b602083015250604061186e848285016117db565b6040830152506060611882848285016117db565b6060830152506080611896848285016117db565b60808301525060a06118aa84828501611805565b60a08301525092915050565b5f60c082840312156118cb576118ca6113ff565b5b5f6118d884828501611819565b91505092915050565b7f496e73756666696369656e7420636f6c6c61746572616c0000000000000000005f82015250565b5f6119156017836116d7565b9150611920826118e1565b602082019050919050565b5f6020820190508181035f83015261194281611909565b9050919050565b7f4e487b71000000000000000000000000000000000000000000000000000000005f52601160045260245ffd5b5f61198082611403565b915061198b83611403565b92508282039050818111156119a3576119a2611949565b5b92915050565b5f6060820190506119bc5f8301866115e8565b6119c960208301856115e8565b6119d660408301846114f4565b949350505050565b5f602082840312156119f3576119f26113ff565b5b5f611a0084828501611805565b91505092915050565b7f496e73756666696369656e742062616c616e63650000000000000000000000005f82015250565b5f611a3d6014836116d7565b9150611a4882611a09565b602082019050919050565b5f6020820190508181035f830152611a6a81611a31565b9050919050565b7f436f6c6c6174657272616c20696e207573652062616c616e63650000000000005f82015250565b5f611aa5601a836116d7565b9150611ab082611a71565b602082019050919050565b5f6020820190508181035f830152611ad281611a99565b9050919050565b5f604082019050611aec5f8301856115e8565b611af960208301846114f4565b9392505050565b5f604082019050611b135f8301856115e8565b611b2060208301846115e8565b9392505050565b5f60208284031215611b3c57611b3b6113ff565b5b5f611b49848285016117db565b91505092915050565b7f496e73756666696369656e7420616c6c6f77616e6365000000000000000000005f82015250565b5f611b866016836116d7565b9150611b9182611b52565b602082019050919050565b5f6020820190508181035f830152611bb381611b7a565b9050919050565b5f611bc482611403565b9150611bcf83611403565b9250828201905080821115611be757611be6611949565b5b92915050565b7f496e73756666696369656e74206c697175696469747920696e2074686520706f5f8201527f6f6c000000000000000000000000000000000000000000000000000000000000602082015250565b5f611c476022836116d7565b9150611c5282611bed565b604082019050919050565b5f6020820190508181035f830152611c7481611c3b565b905091905056fea26469706673582212202d016ff8661b3d646554ebcd99effa328f612cf8c6dcd96d7cd929af7f6d779264736f6c63430008150033",
  "immutableReferences": {},
  "source": "// SPDX-License-Identifier: MIT\r\npragma solidity ^0.8.0;\r\n\r\nimport \"@openzeppelin/contracts/token/ERC20/IERC20.sol\";\r\nimport \"@openzeppelin/contracts/access/Ownable.sol\";\r\nimport \"./UserAccountData.sol\"; \r\nimport \"./Token.sol\";\r\nimport \"./USDC.sol\";\r\n\r\ncontract LendingPool is Ownable {\r\n    Token public token;\r\n    USDC public usdc;\r\n    UserAccountData public userAccountDataContract;\r\n    uint256 public interestRate = 20;\r\n   \r\n\r\n    event Deposit(address indexed user, uint256 amount);\r\n    event Withdrawal(address indexed user, uint256 amount);\r\n    event InterestRateChanged(uint256 newRate);\r\n    event Borrow(address indexed user, uint256 amount);\r\n    event Repay(address indexed user, uint256 amount);\r\n\r\n    constructor(address _token, address _usdc, address _userAccountDataContract)  Ownable(msg.sender) {\r\n        token = Token(_token);\r\n        usdc = USDC(_usdc);\r\n        userAccountDataContract = UserAccountData(_userAccountDataContract);\r\n        // interestRate = _interestRate;\r\n    }\r\n\r\n    function deposit(uint256 amount) external {\r\n        require(amount > 0, \"Amount must be greater than 0\");\r\n        require(token.allowance(msg.sender, address(this)) >= amount, \"Insufficient allowance\");\r\n        \r\n        token.transferFrom(msg.sender, address(this), amount);\r\n        UserAccountData.Account memory account = userAccountDataContract.getAccount(msg.sender);\r\n        account.collateralBalance += amount;\r\n        emit Deposit(msg.sender, amount);\r\n    }\r\n\r\n    function withdraw(uint256 amount) external {\r\n        require(amount > 0, \"Amount must be greater than 0\");\r\n         UserAccountData.Account memory account = userAccountDataContract.getAccount(msg.sender);\r\n        require(account.collateralBalance >= amount, \"Insufficient balance\");\r\n        require(account.borrowedAmount <= amount, \"Collaterral in use balance\");\r\n        token.transfer(msg.sender, amount);\r\n        emit Withdrawal(msg.sender, amount);\r\n    }\r\n\r\n    function borrow(uint256 amount) external {\r\n    require(amount > 0, \"Amount must be greater than 0\");\r\n     UserAccountData.Account memory account = userAccountDataContract.getAccount(msg.sender);\r\n    require(account.collateralBalance >= amount, \"Insufficient collateral\");\r\n\r\n    uint256 poolBalance = usdc.balanceOf(address(this));\r\n    require(poolBalance >= amount, \"Insufficient liquidity in the pool\");\r\n\r\n    account.borrowedAmount += amount;\r\n    account.usdcBalance += amount;\r\n\r\n    usdc.transfer(msg.sender, amount);\r\n    emit Borrow(msg.sender, amount);\r\n    }\r\n\r\n    function repay(uint256 amount) external {\r\n        require(amount > 0, \"Amount must be greater than 0\");\r\n         UserAccountData.Account memory account = userAccountDataContract.getAccount(msg.sender);\r\n        require(account.usdcBalance >= amount, \"Insufficient balance\");\r\n        require(usdc.allowance(msg.sender, address(this)) >= amount, \"Insufficient allowance\");\r\n        account.borrowedAmount -= amount;\r\n        account.usdcBalance -= amount;\r\n        usdc.transferFrom(msg.sender, address(this), amount);\r\n        emit Repay(msg.sender, amount);\r\n\r\n    }\r\n\r\n    function repaywithCollateral(uint256 amount) external {\r\n        require(amount > 0, \"Amount must be greater than 0\");\r\n         UserAccountData.Account memory account = userAccountDataContract.getAccount(msg.sender);\r\n        require(account.collateralBalance >= amount, \"Insufficient collateral\");\r\n        account.borrowedAmount -= amount;\r\n        account.collateralBalance -= amount;\r\n        token.transferFrom(msg.sender, address(this), amount);\r\n        emit Repay(msg.sender, amount);\r\n    }\r\n\r\n    function getUser() external view returns (UserAccountData.Account memory) {\r\n          UserAccountData.Account memory account = userAccountDataContract.getAccount(msg.sender);\r\n         return account;\r\n    }\r\n\r\n    function getInterestRate() external view returns (uint256) {\r\n        return interestRate;\r\n    }\r\n\r\n    function setInterestRate(uint256 _newRate) public onlyOwner {\r\n        interestRate = _newRate;\r\n         emit InterestRateChanged(_newRate);\r\n\r\n    }\r\n}\r\n",
  "sourcePath": "C:\\Users\\EPHRAIM\\Desktop\\Dev\\Scroll\\web3\\contracts\\LendingPool.sol",
  "compiler": {
    "name": "solc",
    "version": "0.8.21+commit.d9974bed.Emscripten.clang"
  },
  "schemaVersion": "3.4.16",
  "updatedAt": "2024-04-04T10:24:25.642Z",
  "devdoc": {
    "errors": {
      "OwnableInvalidOwner(address)": [
        {
          "details": "The owner is not a valid owner account. (eg. `address(0)`)"
        }
      ],
      "OwnableUnauthorizedAccount(address)": [
        {
          "details": "The caller account is not authorized to perform an operation."
        }
      ]
    },
    "kind": "dev",
    "methods": {
      "owner()": {
        "details": "Returns the address of the current owner."
      },
      "renounceOwnership()": {
        "details": "Leaves the contract without owner. It will not be possible to call `onlyOwner` functions. Can only be called by the current owner. NOTE: Renouncing ownership will leave the contract without an owner, thereby disabling any functionality that is only available to the owner."
      },
      "transferOwnership(address)": {
        "details": "Transfers ownership of the contract to a new account (`newOwner`). Can only be called by the current owner."
      }
    },
    "version": 1
  },
  "userdoc": {
    "kind": "user",
    "methods": {},
    "version": 1
  }
}