{
  "contractName": "UserAccountData",
  "abi": [
    {
      "inputs": [
        {
          "internalType": "address",
          "name": "_token",
          "type": "address"
        }
      ],
      "stateMutability": "nonpayable",
      "type": "constructor"
    },
    {
      "inputs": [
        {
          "internalType": "address",
          "name": "owner",
          "type": "address"
        }
      ],
      "name": "OwnableInvalidOwner",
      "type": "error"
    },
    {
      "inputs": [
        {
          "internalType": "address",
          "name": "account",
          "type": "address"
        }
      ],
      "name": "OwnableUnauthorizedAccount",
      "type": "error"
    },
    {
      "anonymous": false,
      "inputs": [
        {
          "indexed": true,
          "internalType": "address",
          "name": "previousOwner",
          "type": "address"
        },
        {
          "indexed": true,
          "internalType": "address",
          "name": "newOwner",
          "type": "address"
        }
      ],
      "name": "OwnershipTransferred",
      "type": "event"
    },
    {
      "inputs": [
        {
          "internalType": "address",
          "name": "",
          "type": "address"
        }
      ],
      "name": "accounts",
      "outputs": [
        {
          "internalType": "uint256",
          "name": "collateralBalance",
          "type": "uint256"
        },
        {
          "internalType": "uint256",
          "name": "borrowedAmount",
          "type": "uint256"
        },
        {
          "internalType": "uint256",
          "name": "tokenBalance",
          "type": "uint256"
        },
        {
          "internalType": "uint256",
          "name": "usdcBalance",
          "type": "uint256"
        },
        {
          "internalType": "uint256",
          "name": "interestIndex",
          "type": "uint256"
        },
        {
          "internalType": "bool",
          "name": "isActive",
          "type": "bool"
        }
      ],
      "stateMutability": "view",
      "type": "function"
    },
    {
      "inputs": [],
      "name": "owner",
      "outputs": [
        {
          "internalType": "address",
          "name": "",
          "type": "address"
        }
      ],
      "stateMutability": "view",
      "type": "function"
    },
    {
      "inputs": [],
      "name": "renounceOwnership",
      "outputs": [],
      "stateMutability": "nonpayable",
      "type": "function"
    },
    {
      "inputs": [],
      "name": "token",
      "outputs": [
        {
          "internalType": "contract Token",
          "name": "",
          "type": "address"
        }
      ],
      "stateMutability": "view",
      "type": "function"
    },
    {
      "inputs": [
        {
          "internalType": "address",
          "name": "newOwner",
          "type": "address"
        }
      ],
      "name": "transferOwnership",
      "outputs": [],
      "stateMutability": "nonpayable",
      "type": "function"
    },
    {
      "inputs": [
        {
          "internalType": "address",
          "name": "user",
          "type": "address"
        }
      ],
      "name": "registerUser",
      "outputs": [],
      "stateMutability": "nonpayable",
      "type": "function"
    },
    {
      "inputs": [
        {
          "internalType": "address",
          "name": "account",
          "type": "address"
        }
      ],
      "name": "getAccount",
      "outputs": [
        {
          "components": [
            {
              "internalType": "uint256",
              "name": "collateralBalance",
              "type": "uint256"
            },
            {
              "internalType": "uint256",
              "name": "borrowedAmount",
              "type": "uint256"
            },
            {
              "internalType": "uint256",
              "name": "tokenBalance",
              "type": "uint256"
            },
            {
              "internalType": "uint256",
              "name": "usdcBalance",
              "type": "uint256"
            },
            {
              "internalType": "uint256",
              "name": "interestIndex",
              "type": "uint256"
            },
            {
              "internalType": "bool",
              "name": "isActive",
              "type": "bool"
            }
          ],
          "internalType": "struct UserAccountData.Account",
          "name": "",
          "type": "tuple"
        }
      ],
      "stateMutability": "view",
      "type": "function"
    },
    {
      "inputs": [
        {
          "internalType": "address",
          "name": "user",
          "type": "address"
        }
      ],
      "name": "activateUser",
      "outputs": [],
      "stateMutability": "nonpayable",
      "type": "function"
    },
    {
      "inputs": [
        {
          "internalType": "address",
          "name": "user",
          "type": "address"
        }
      ],
      "name": "deactivateUser",
      "outputs": [],
      "stateMutability": "nonpayable",
      "type": "function"
    }
  ],
  "bytecode": "0x608060405234801562000010575f80fd5b5060405162000dc338038062000dc3833981810160405281019062000036919062000229565b335f73ffffffffffffffffffffffffffffffffffffffff168173ffffffffffffffffffffffffffffffffffffffff1603620000aa575f6040517f1e4fbdf7000000000000000000000000000000000000000000000000000000008152600401620000a191906200026a565b60405180910390fd5b620000bb816200010360201b60201c565b508060015f6101000a81548173ffffffffffffffffffffffffffffffffffffffff021916908373ffffffffffffffffffffffffffffffffffffffff1602179055505062000285565b5f805f9054906101000a900473ffffffffffffffffffffffffffffffffffffffff169050815f806101000a81548173ffffffffffffffffffffffffffffffffffffffff021916908373ffffffffffffffffffffffffffffffffffffffff1602179055508173ffffffffffffffffffffffffffffffffffffffff168173ffffffffffffffffffffffffffffffffffffffff167f8be0079c531659141344cd1fd0a4f28419497f9722a3daafe3b4186f6b6457e060405160405180910390a35050565b5f80fd5b5f73ffffffffffffffffffffffffffffffffffffffff82169050919050565b5f620001f382620001c8565b9050919050565b6200020581620001e7565b811462000210575f80fd5b50565b5f815190506200022381620001fa565b92915050565b5f60208284031215620002415762000240620001c4565b5b5f620002508482850162000213565b91505092915050565b6200026481620001e7565b82525050565b5f6020820190506200027f5f83018462000259565b92915050565b610b3080620002935f395ff3fe608060405234801561000f575f80fd5b5060043610610091575f3560e01c80638da5cb5b116100645780638da5cb5b1461010c578063b4acfe1c1461012a578063f2fde38b14610146578063fbcbc0f114610162578063fc0c546a1461019257610091565b80631a47767b146100955780632199d5cd146100b15780635e5c06e2146100cd578063715018a614610102575b5f80fd5b6100af60048036038101906100aa919061081a565b6101b0565b005b6100cb60048036038101906100c6919061081a565b610212565b005b6100e760048036038101906100e2919061081a565b61040f565b6040516100f996959493929190610877565b60405180910390f35b61010a610453565b005b610114610466565b60405161012191906108e5565b60405180910390f35b610144600480360381019061013f919061081a565b61048d565b005b610160600480360381019061015b919061081a565b6104f0565b005b61017c6004803603810190610177919061081a565b610574565b6040516101899190610995565b60405180910390f35b61019a610616565b6040516101a79190610a09565b60405180910390f35b6101b861063b565b5f60025f8373ffffffffffffffffffffffffffffffffffffffff1673ffffffffffffffffffffffffffffffffffffffff1681526020019081526020015f206005015f6101000a81548160ff02191690831515021790555050565b5f151560025f8373ffffffffffffffffffffffffffffffffffffffff1673ffffffffffffffffffffffffffffffffffffffff1681526020019081526020015f206005015f9054906101000a900460ff161515146102a4576040517f08c379a000000000000000000000000000000000000000000000000000000000815260040161029b90610a7c565b60405180910390fd5b6102ac61078a565b5f815f0181815250505f8160200181815250506103e88160400181815250505f8160600181815250505f81608001818152505060018160a00190151590811515815250508060025f8473ffffffffffffffffffffffffffffffffffffffff1673ffffffffffffffffffffffffffffffffffffffff1681526020019081526020015f205f820151815f01556020820151816001015560408201518160020155606082015181600301556080820151816004015560a0820151816005015f6101000a81548160ff02191690831515021790555090505060015f9054906101000a900473ffffffffffffffffffffffffffffffffffffffff1673ffffffffffffffffffffffffffffffffffffffff166340c10f19836103e86040518363ffffffff1660e01b81526004016103de929190610ad3565b5f604051808303815f87803b1580156103f5575f80fd5b505af1158015610407573d5f803e3d5ffd5b505050505050565b6002602052805f5260405f205f91509050805f015490806001015490806002015490806003015490806004015490806005015f9054906101000a900460ff16905086565b61045b61063b565b6104645f6106c2565b565b5f805f9054906101000a900473ffffffffffffffffffffffffffffffffffffffff16905090565b61049561063b565b600160025f8373ffffffffffffffffffffffffffffffffffffffff1673ffffffffffffffffffffffffffffffffffffffff1681526020019081526020015f206005015f6101000a81548160ff02191690831515021790555050565b6104f861063b565b5f73ffffffffffffffffffffffffffffffffffffffff168173ffffffffffffffffffffffffffffffffffffffff1603610568575f6040517f1e4fbdf700000000000000000000000000000000000000000000000000000000815260040161055f91906108e5565b60405180910390fd5b610571816106c2565b50565b61057c61078a565b60025f8373ffffffffffffffffffffffffffffffffffffffff1673ffffffffffffffffffffffffffffffffffffffff1681526020019081526020015f206040518060c00160405290815f820154815260200160018201548152602001600282015481526020016003820154815260200160048201548152602001600582015f9054906101000a900460ff1615151515815250509050919050565b60015f9054906101000a900473ffffffffffffffffffffffffffffffffffffffff1681565b610643610783565b73ffffffffffffffffffffffffffffffffffffffff16610661610466565b73ffffffffffffffffffffffffffffffffffffffff16146106c057610684610783565b6040517f118cdaa70000000000000000000000000000000000000000000000000000000081526004016106b791906108e5565b60405180910390fd5b565b5f805f9054906101000a900473ffffffffffffffffffffffffffffffffffffffff169050815f806101000a81548173ffffffffffffffffffffffffffffffffffffffff021916908373ffffffffffffffffffffffffffffffffffffffff1602179055508173ffffffffffffffffffffffffffffffffffffffff168173ffffffffffffffffffffffffffffffffffffffff167f8be0079c531659141344cd1fd0a4f28419497f9722a3daafe3b4186f6b6457e060405160405180910390a35050565b5f33905090565b6040518060c001604052805f81526020015f81526020015f81526020015f81526020015f81526020015f151581525090565b5f80fd5b5f73ffffffffffffffffffffffffffffffffffffffff82169050919050565b5f6107e9826107c0565b9050919050565b6107f9816107df565b8114610803575f80fd5b50565b5f81359050610814816107f0565b92915050565b5f6020828403121561082f5761082e6107bc565b5b5f61083c84828501610806565b91505092915050565b5f819050919050565b61085781610845565b82525050565b5f8115159050919050565b6108718161085d565b82525050565b5f60c08201905061088a5f83018961084e565b610897602083018861084e565b6108a4604083018761084e565b6108b1606083018661084e565b6108be608083018561084e565b6108cb60a0830184610868565b979650505050505050565b6108df816107df565b82525050565b5f6020820190506108f85f8301846108d6565b92915050565b61090781610845565b82525050565b6109168161085d565b82525050565b60c082015f8201516109305f8501826108fe565b50602082015161094360208501826108fe565b50604082015161095660408501826108fe565b50606082015161096960608501826108fe565b50608082015161097c60808501826108fe565b5060a082015161098f60a085018261090d565b50505050565b5f60c0820190506109a85f83018461091c565b92915050565b5f819050919050565b5f6109d16109cc6109c7846107c0565b6109ae565b6107c0565b9050919050565b5f6109e2826109b7565b9050919050565b5f6109f3826109d8565b9050919050565b610a03816109e9565b82525050565b5f602082019050610a1c5f8301846109fa565b92915050565b5f82825260208201905092915050565b7f5573657220616c726561647920726567697374657265640000000000000000005f82015250565b5f610a66601783610a22565b9150610a7182610a32565b602082019050919050565b5f6020820190508181035f830152610a9381610a5a565b9050919050565b5f819050919050565b5f610abd610ab8610ab384610a9a565b6109ae565b610845565b9050919050565b610acd81610aa3565b82525050565b5f604082019050610ae65f8301856108d6565b610af36020830184610ac4565b939250505056fea2646970667358221220195ad3fa1a303688a64967f444ec6a8524ca71f9f987d7db29878bb2db61dc7e64736f6c63430008150033",
  "immutableReferences": {},
  "source": "// SPDX-License-Identifier: MIT\r\npragma solidity ^0.8.0;\r\n\r\nimport \"@openzeppelin/contracts/token/ERC20/IERC20.sol\";\r\nimport \"@openzeppelin/contracts/access/Ownable.sol\";\r\nimport \"./Token.sol\";\r\n\r\ncontract UserAccountData is Ownable {\r\n    struct Account {\r\n        uint256 collateralBalance;\r\n        uint256 borrowedAmount;\r\n        uint256 tokenBalance;\r\n        uint256 usdcBalance;\r\n        uint256 interestIndex;\r\n        bool isActive;\r\n    }\r\n\r\n    Token public token;\r\n\r\n    mapping(address => Account) public accounts;\r\n\r\n    constructor(address _token)  Ownable(msg.sender) {\r\n        token = Token(_token);\r\n    }\r\n\r\n   function registerUser(address user) public {\r\n    require(accounts[user].isActive == false, \"User already registered\");\r\n    \r\n    Account memory newUser;\r\n    newUser.collateralBalance = 0;\r\n    newUser.borrowedAmount = 0;\r\n    newUser.tokenBalance = 1000;\r\n    newUser.usdcBalance = 0;\r\n    newUser.interestIndex = 0;\r\n    newUser.isActive = true;\r\n    \r\n    accounts[user] = newUser;\r\n\r\n    token.mint(user, 1000);\r\n    }\r\n\r\n\r\n    \r\n    function getAccount(address account) external view returns (Account memory) {\r\n        return accounts[account];\r\n    }\r\n\r\n    function activateUser(address user) external onlyOwner {\r\n        accounts[user].isActive = true;\r\n    }\r\n\r\n    function deactivateUser(address user) external onlyOwner {\r\n        accounts[user].isActive = false;\r\n    }\r\n}\r\n",
  "sourcePath": "C:\\Users\\EPHRAIM\\Desktop\\Dev\\Scroll\\web3\\contracts\\UserAccountData.sol",
  "compiler": {
    "name": "solc",
    "version": "0.8.21+commit.d9974bed.Emscripten.clang"
  },
  "schemaVersion": "3.4.16",
  "updatedAt": "2024-04-03T22:54:03.326Z",
  "devdoc": {
    "errors": {
      "OwnableInvalidOwner(address)": [
        {
          "details": "The owner is not a valid owner account. (eg. `address(0)`)"
        }
      ],
      "OwnableUnauthorizedAccount(address)": [
        {
          "details": "The caller account is not authorized to perform an operation."
        }
      ]
    },
    "kind": "dev",
    "methods": {
      "owner()": {
        "details": "Returns the address of the current owner."
      },
      "renounceOwnership()": {
        "details": "Leaves the contract without owner. It will not be possible to call `onlyOwner` functions. Can only be called by the current owner. NOTE: Renouncing ownership will leave the contract without an owner, thereby disabling any functionality that is only available to the owner."
      },
      "transferOwnership(address)": {
        "details": "Transfers ownership of the contract to a new account (`newOwner`). Can only be called by the current owner."
      }
    },
    "version": 1
  },
  "userdoc": {
    "kind": "user",
    "methods": {},
    "version": 1
  }
}